:020000040000FA
:0400000060EF00F0BD
:020004000000FA
:040008000EEF00F007
:080018000FEF00F010001000D2
:10002000740ED36E9B8C1200936A816A9496949896
:100030008B968B86006A016A016A026A036A120063
:10004000D08EF292F2921200000EB06E190EAF6EC8
:10005000AC94B896AC98AB8EAC8AAB881200009288
:10006000026A1200022A070E025CD8B42FEC00F0DC
:100070004CEF00F08B888B980092120001C003F0C7
:10008000020E035CD8A43AEC00F0120000B232EF8A
:1000900000F000823EEC00F01200AC8A01C0ADFF1F
:1000A000ACA250EF00F01200AECF01F0015046ECD0
:1000B00000F04DEC00F012009EBA54EC00F012007B
:1000C00010EC00F014EC00F020EC00F024EC00F058
:0800D0005CEC00F068EF00F0A9
:020000040030CA
:0100010009F5
:010003001EDE
:010005008179
:00000001FF
