:020000040000FA
:0400000090EF00F08D
:020004000000FA
:040008000DEF00F008
:080018001100F2A41100F294A2
:10002000E00ED76EBF0ED66E042A1100740ED36E8A
:100030009B8C1200880ED56EE00ED76EBF0ED66E6A
:100040001200D08EF28AF294F28EF28C1200000E20
:10005000B06E190EAF6EAC94B896AC98AB8EAC8AFD
:10006000AB881200936A816A94968B968B869498DB
:100070008B98949A8B9A006A016A016A026A036AF1
:1000800012000092026A1200022A070E025CD8B423
:1000900041EC00F05EEF00F08B988B88009212002C
:1000A00001C003F0020E035CD8A44CEC00F0120077
:1000B00000B244EF00F0008250EC00F01200AC8A75
:1000C00001C0ADFFACA262EF00F01200AECF01F0B4
:1000D000015058EC00F05FEC00F012009EBA66ECA4
:1000E00000F01200630E046472EF00F012008B96B1
:1000F0008B8612008B988B88052A070E05647AEF91
:1001000000F0056A12007DEC00F0046A8B8A72EC44
:1001100000F077EC00F0046A8B9A72EC00F01200A9
:1001200016EC00F01AEC00F027EC00F021EC00F0E7
:0C01300032EC00F06EEC00F09AEF00F0F2
:020000040030CA
:0100010009F5
:010003001EDE
:010005008179
:00000001FF
